:100000000200560200000000000000020000000094
:1000100000000002000000000000000200000000DC
:1000200000000002000000000000000200000000CC
:1000300000000002000000000000000200000000BC
:0E0040000000000000000000000000020000B0
:08004E00E493F608A3D9F9229E
:100056007581807582F775830078087911114ED203
:10006600B2D2B37580FFC2B2C2B3751900751A0059
:10007600C3E519940A74006480F8E51A6480985000
:100086002274082519F886807D047E817F79DFFE3B
:10009600DEFCDDFA0074012519F5197400351AF530
:1000A6001A80CD7580BF7D047E817F79DFFEDEFC00
:1000B600DDFA00751909751A00C3E5199400740074
:1000C6006480F8E51A648098402374082519F88638
:1000D600807D047E817F79DFFEDEFCDDFA00C3E5EC
:1000E600199401F519E51A9400F51A80CC016C8073
:0100F600FE0B
:1000F700C0F9A4B0999282F880908883C6A1868EB1
:01010700BF38
:00000001FF
