:100000000202AE020000000000000002000000003A
:1000100000000002000000000000000200000000DC
:1000200000000002000000000000000200000000CC
:1000300000000002000000000000000200000000BC
:0E0040000000000000000000000000020000B0
:06004E007F16DFFE002218
:0A0054007E0A7FDBDFFEDEFC0022E7
:02005E0000227E
:10006000E5165480F8630080E86004780080027828
:1000700001E81392A7E5165440F8630040E86004D5
:10008000780080027801E81392A6E5165420F86300
:100090000020E86004780080027801E81392A5E56A
:1000A000165410F8630010E86004780080027801AC
:1000B000E81392A4E50C6004780080027801E8134C
:1000C00092B6D2B7115EC2B7E5165408F8630008BD
:1000D000E86004780080027801E81392A7E51654DE
:1000E00004F8630004E86004780080027801E813F3
:1000F00092A6E5165402F8630002E86004780080D6
:10010000027801E81392A5E5165401F8630001E8AE
:100110006004780080027801E81392A4E50C600482
:10012000780080027801E81392B6D2B7115EC2B7A8
:0B013000E50C600411548002114E2207
:0C013B00750C008514161160750C012273
:10014700851415A8150515E6600280F7C3E5159512
:0C01570014F8C3E89401F8E49400F922C5
:100163008019750F80802E750FC08029750F9480BC
:1001730024750FD4801F750F80801AE50F6401600A
:10018300E1E50F640260E0E50F640360DFE50F64FF
:100193000460DE80E1C3E5109401F8E50F28F885DB
:1001A300000F8500161160750C00751200E511250E
:1001B30012F8E6600DE5112512F88614313B05129D
:0601C30080EB750C012227
:1001C900C2B7C2B6115411541154C2A7C2A6C2A5CE
:1001D900C2A4D2A5D2A4D2B7115EC2B71154D2B764
:1001E900115EC2B71154D2B7115EC2B71154D2A56C
:1001F900C2A4D2B7115EC2B71154C2A7C2A6C2A582
:10020900D2A5C2A4D2B7115EC2B7C2A5D2A7D2B72E
:10021900115EC2B71154C2A7D2A4D2B7115EC2B738
:10022900C2A4D2B7115EC2B71154C2A4D2B7115E2B
:10023900C2B7D2A4D2B7115EC2B71154C2A4D2B701
:10024900115EC2B7D2A7D2A6D2A5D2A4D2B7115EE7
:08025900C2B71154750C01221B
:10026100A80FE66012A80F8602A8108601EA69703D
:1002710006050F051080E9A80FA910C3E697F8E459
:040281009400F922CA
:08028500E493F608A3D9F92265
:10028D00850F11850F143147850012850113E51176
:10029D002512F8850011A6100511A8117600A80FDA
:0102AD00222E
:1002AE007581801204B731C9751601116075160C6F
:1002BE0011607516011160750F01751001751145EC
:1002CE003163750F027510017511513163C3E5303D
:1002DE00940474006480F8E5316480984002618C67
:1002EE00209024750831750F44751031518D7401AD
:1002FE002530F53074003531F53120900A7E5A7F65
:10030E00A5DFFEDEFC80F3209124750932750F44C3
:10031E00751032518D74012530F53074003531F57C
:10032E003120910A7E5A7FA5DFFEDEFC80F32092FB
:10033E0024750D33750F44751033518D74012530AE
:10034E00F53074003531F53120920A7E5A7FA5DFE3
:10035E00FEDEFC80F3209324750E34750F44751069
:10036E0034518D74012530F53074003531F531205E
:10037E00930A7E5A7FA5DFFEDEFC80F341DB750F0C
:10038E003F7510445161E849706E750A00750B0097
:10039E00D3E50A940574006480F8E50B64809850E8
:1003AE005575160111607D047E817F79DFFEDEFCBE
:1003BE00DDFA00750F017510017511513163750F5E
:1003CE000275100175114431637D047E817F79DFE2
:1003DE00FEDEFCDDFA0075160111607D047E817F64
:1003EE0079DFFEDEFCDDFA007401250AF50A7400E1
:1003FE00350BF50B809A806C750A00750B00D3E5F2
:10040E000A940574006480F8E50B64809850557565
:10041E00160111607D047E817F79DFFEDEFCDDFA40
:10042E0000750F017510017511323163750F02756C
:10043E00100175114431637D047E817F79DFFEDE0C
:10044E00FCDDFA0075160111607D047E817F79DF77
:10045E00FEDEFCDDFA007401250AF50A7400350B88
:10046E00F50B809A750800750900750D00750E0064
:0A047E0075300075310041C080FEAA
:0E04B7007830792F75828875830412028522B1
:02048800000072
:0D048A0053454E4841204552524144410027
:05049700333231340096
:01049C00005F
:0C049D00454E54524520434F4D20410075
:0E04A90053454E484120434F525245544100A6
:00000001FF
