:100000000200560200000000000000020000000094
:1000100000000002000000000000000200000000DC
:1000200000000002000000000000000200000000CC
:1000300000000002000000000000000200000000BC
:0E0040000000000000000000000000020000B0
:08004E00E493F608A3D9F9229E
:10005600758180D2B2D2B37580FFC2B2D2B3758039
:10006600FF750800750900C3E508940A74006480EA
:10007600F8E509648098503174032508F974013550
:1000860009FA850182850283E493F88500807D0460
:100096007E817F79DFFEDEFCDDFA0074012508F53E
:1000A6000874003509F50980BED2B2C2B37580FF67
:1000B600750809750900C3E508940074006480F8A2
:1000C600E509648098403274032508F974013509FE
:1000D600FA850182850283E493F88500807D047E9B
:1000E600817F79DFFEDEFCDDFA00C3E5089401F5C9
:0D00F60008E5099400F50980BD016080FE59
:0A010300C0F9A4B0999282F8809030
:00000001FF
