:100000000200B0020000000000000002000000003A
:1000100000000002000000000000000200000000DC
:1000200000000002000000000000000200000000CC
:1000300000000002000000000000000200000000BC
:0E0040000000000000000000000000020000B0
:03004E00D2942227
:03005100C2952233
:03005400D2952220
:08005700E493F608A3D9F92295
:0D005F00C2947EB47F4BDFFEDEFC114E220A
:10006C00850A80E50C450D70087EB47F4BDFFEDE03
:10007C00FC7401650C70047400650D700D7D047EBC
:10008C00817F79DFFEDEFCDDFA007402650C700402
:10009C007400650D700D7D087E017FF5DFFEDEFCC2
:0400AC00DDFA002257
:1000B000758180209004115F801C750AFA750B0011
:1000C000750C01750D00116C750AFF750B00750C30
:1000D00003750D00116C7D047E817F79DFFEDEFCEF
:1000E000DDFA0020911311517D047E817F79DFFEBE
:1000F000DEFCDDFA001154801C750AD5750B007505
:100100000C02750D00116C750AFF750B00750C0360
:10011000750D00116C7D047E817F79DFFEDEFCDDD4
:10012000FA0020921511517D047E817F79DFFEDE79
:10013000FCDDFA00115F1154801C750A5E750B001E
:10014000750C02750D00116C750AFF750B00750CAE
:1001500003750D00116C7D047E817F79DFFEDEFC6E
:10016000DDFA00209341750800750900D3E5089475
:100170000A74006480F8E509648098502A750A00C2
:10018000750B00750C01750D00116C750AFF750B70
:1001900000750C01750D00116C74012508F50874CB
:0B01A000003509F50980C501B380FEA1
:00000001FF
