:100000000200AB02005600000000000200000000E9
:1000100000000002000000000000000200000000DC
:1000200000000002000000000000000200000000CC
:1000300000000002000000000000000200000000BC
:0E0040000000000000000000000000020000B0
:08004E00E493F608A3D9F9229E
:10005600C000C006C007C0D0C0E0C0F0C082C083E8
:10006600D2B2D2B3851080750E00750F00C3E50EAF
:1000760094E874036480F8E50F64809850167E1245
:100086007FEDDFFEDEFC7401250EF50E7400350FE4
:10009600F50F80D9D083D082D0F0D0E0D0D0D00771
:0500A600D006D000327D
:1000AB0075818012016ED2AFD2A8D288C2B8D2AA03
:1000BB00C28AD2BA750800750900C3E508940A74A0
:1000CB00006480F8E50964809840022160750A009D
:1000DB00750B00C3E50A940A74006480F8E50B64A1
:1000EB0080985063750C00750D00C3E50C94327449
:1000FB00006480F8E50D648098503EC2B2D2B374B0
:10010B00302508F886807E127FEDDFFEDEFCD2B252
:10011B00C2B37430250AF886807E127FEDDFFEDED7
:10012B00FC7430250AF88610E4F5117401250CF5E2
:10013B000C7400350DF50D80B17401250AF50A74A8
:10014B0000350BF50B01DE74012508F5087400353D
:09015B0009F50901C501BF80FE90
:0E016E007830790A75826475830112004E2282
:0A016400C0F9A4B0999282F88090CF
:00000001FF
