:1000000002025B020000000000000002000000008D
:1000100000000002000000000000000200000000DC
:1000200000000002000000000000000200000000CC
:1000300000000002000000000000000200000000BC
:0E0040000000000000000000000000020000B0
:06004E007F16DFFE002218
:0A0054007E0A7FDBDFFEDEFC0022E7
:02005E0000227E
:10006000E50F5480F8630080E8600478008002782F
:1000700001E81392A7E50F5440F8630040E86004DC
:10008000780080027801E81392A6E50F5420F86307
:100090000020E86004780080027801E81392A5E56A
:1000A0000F5410F8630010E86004780080027801B3
:1000B000E81392A4E5096004780080027801E8134F
:1000C00092B6D2B7115EC2B7E50F5408F8630008C4
:1000D000E86004780080027801E81392A7E50F54E5
:1000E00004F8630004E86004780080027801E813F3
:1000F00092A6E50F5402F8630002E86004780080DD
:10010000027801E81392A5E50F5401F8630001E8B5
:100110006004780080027801E81392A4E509600485
:10012000780080027801E81392B6D2B7115EC2B7A8
:0B013000E509600411548002114E220A
:0C013B00750900850E0F11607509012286
:100147008019750A80802E750AC08029750A9480E7
:1001570024750AD4801F750A80801AE50A64016035
:10016700E1E50A640260E0E50A640360DFE50A642A
:100177000460DE80E1C3E50B9401F8E50A28F88501
:10018700000A85000F1160750900750D00E50C2543
:100197000DF8E6600DE50C250DF8860E313B050DD3
:0601A70080EB7509012246
:1001AD00C2B7C2B6115411541154C2A7C2A6C2A5EA
:1001BD00C2A4D2A5D2A4D2B7115EC2B71154D2B780
:1001CD00115EC2B71154D2B7115EC2B71154D2A588
:1001DD00C2A4D2B7115EC2B71154C2A7C2A6C2A59E
:1001ED00D2A5C2A4D2B7115EC2B7C2A5D2A7D2B74B
:1001FD00115EC2B71154C2A7D2A4D2B7115EC2B755
:10020D00C2A4D2B7115EC2B71154C2A4D2B7115E47
:10021D00C2B7D2A4D2B7115EC2B71154C2A4D2B71D
:10022D00115EC2B7D2A7D2A6D2A5D2A4D2B7115E03
:08023D00C2B71154750901223A
:0E0245007D047E817F79DFFEDEFCDDFA002283
:08025300E493F608A3D9F92297
:10025B0075818012031231AD750F011160750F0C92
:10026B001160750A01750B06750C4B3147750A0247
:10027B00750B06750C3031477D0F7E027FEDDFFE6F
:10028B00DEFCDDFA00750F011160750A01750B10AC
:10029B00750C3B3147750A02750B05750C3D3147E3
:1002AB007D0F7E027FEDDFFEDEFCDDFA00750800C0
:1002BB00C3E5089410500B750F18116051450508D4
:1002CB0080EE750F0E1160750800C3E50894105091
:1002DB000B750F1C11605145050880EE750F0C1145
:0502EB006080CA80FEE6
:0E031200783079227582F07583021202532230
:0B02F000636176616C63616E746500F1
:0202FB004100C0
:0E02FD006B6974203835312073747564790094
:07030B0073616D75656C0064
:00000001FF
