:1000000002024D020000000000000002000000009B
:1000100000000002000000000000000200000000DC
:1000200000000002000000000000000200000000CC
:1000300000000002000000000000000200000000BC
:0E0040000000000000000000000000020000B0
:0A004E007E0A7FDBDFFEDEFC0022ED
:02005800002284
:06005A007F16DFFE00220C
:10006000E50E5480F8630080E86004780080027830
:1000700001E81392A7E50E5440F8630040E86004DD
:10008000780080027801E81392A6E50E5420F86308
:100090000020E86004780080027801E81392A5E56A
:1000A0000E5410F8630010E86004780080027801B4
:1000B000E81392A4E5086004780080027801E81350
:1000C00092B6D2B71158C2B7E50E5408F8630008CB
:1000D000E86004780080027801E81392A7E50E54E6
:1000E00004F8630004E86004780080027801E813F3
:1000F00092A6E50E5402F8630002E86004780080DE
:10010000027801E81392A5E50E5401F8630001E8B6
:100110006004780080027801E81392A4E508600486
:10012000780080027801E81392B6D2B71158C2B7AE
:0B013000E5086004114E8002115A2205
:0C013B00750800850D0E1160750801228A
:10014700C2B7C2B6114E114E114EC2A7C2A6C2A562
:10015700C2A4D2A5D2A4D2B71158C2B7114ED2B7F2
:100167001158C2B7114ED2B71158C2B7114ED2A506
:10017700C2A4D2B71158C2B7114EC2A7C2A6C2A510
:10018700D2A5C2A4D2B71158C2B7C2A5D2A7D2B7B7
:100197001158C2B7114EC2A7D2A4D2B71158C2B7CD
:1001A700C2A4D2B71158C2B7114EC2A4D2B71158C0
:1001B700C2B7D2A4D2B71158C2B7114EC2A4D2B790
:1001C7001158C2B7D2A7D2A6D2A5D2A4D2B7115876
:0801D700C2B7114E75080122A8
:1001DF008019750980802E7509C080297509948052
:1001EF00247509D4801F750980801AE509640160A0
:1001FF00E1E509640260E0E509640360DFE5096495
:10020F000460DE80E1C3E50A9401F8E50928F8856A
:10021F00000985000E1160750800750C00E50B25AF
:10022F000CF8E6600DE50B250CF8860D313B050C3F
:06023F0080EB75080122AE
:08024500E493F608A3D9F922A5
:10024D007581801205003147750E011160750E0C18
:10025D001160750E011160750E0C116075600075E1
:10026D006100C3E560940474006480F8E561648006
:10027D00984002614B750901750A01750B5331DF09
:10028D0020902C74012560F56074003561F5618551
:10029D0060518561527D037E747F87DFFEDEFCDD5C
:1002AD00FA0075090285600A750B4F31DF80D12088
:1002BD00912C74012560F56074003561F5618560E0
:1002CD004D85614E7D037E747F87DFFEDEFCDDFA9A
:1002DD000075090285600A750B4F31DF80D12092C0
:1002ED002C74012560F56074003561F56185603A07
:1002FD0085613B7D037E747F87DFFEDEFCDDFA00CA
:10030D0075090285600A750B4F31DF80D120932C62
:10031D0074012560F56074003561F56185604B856C
:10032D00614C7D037E747F87DFFEDEFCDDFA007598
:10033D00090285600A750B4F31DF80D1416F740161
:10034D00653A70047400653B6002811D740265514D
:10035D007004740065526002811D7403654D700454
:10036D007400654E6002811D7404654B7004740049
:10037D00654C6002811D750E011160750E0C1160CA
:10038D00750901750A06750B4431DF750902750A89
:10039D0006750B3C31DFC2957D027EC17F3BDFFED2
:1003AD00DEFCDDFA00D2957D027EC17F3BDFFEDEF5
:1003BD00FCDDFA00C2957D027EC17F3BDFFEDEFCD7
:1003CD00DDFA00D2957D027EC17F3BDFFEDEFCDDD6
:1003DD00FA00C2957D027EC17F3BDFFEDEFCDDFAB9
:1003ED0000D2957D087E017FF5DFFEDEFCDDFA0093
:1003FD00756000756100755100755200754D007581
:10040D004E00753A00753B00754B00754C00614B05
:10041D00D3E560940074006480F8E56164809850C1
:10042D000281CA750E011160750E0C1160750901FE
:10043D00750A06750B4431DF750902750A06750BD1
:10044D003031DFC2947D027EC17F3BDFFEDEFCDDFD
:10045D00FA00D2947D027EC17F3BDFFEDEFCDDFA29
:10046D0000C2947D027EC17F3BDFFEDEFCDDFA0023
:10047D00D2947D027EC17F3BDFFEDEFCDDFA00C241
:10048D00947D027EC17F3BDFFEDEFCDDFA00D2945F
:10049D007D087E017FF5DFFEDEFCDDFA0075600074
:1004AD00756100755100755200754D00754E0075E2
:1004BD003A00753B00754B00754C00811D415F8006
:0104CD00FE30
:0E050000783079327582CE758304120245225E
:0A04CE00494E434F5252455441007D
:0204D800000022
:0804DA00434F5252455441000A
:0704E2002053454E48410084
:0204E900000011
:0204EB0000000F
:0204ED002A00E3
:0204EF0000000B
:0D04F1004449474954452053454E484100B9
:0204FE000000FC
:00000001FF
