:100000000200560200000000000000020000000094
:1000100000000002000000000000000200000000DC
:1000200000000002000000000000000200000000CC
:1000300000000002000000000000000200000000BC
:0E0040000000000000000000000000020000B0
:08004E00E493F608A3D9F9229E
:1000560075818030900201D5750800750900C3E5E9
:1000660008946474006480F8E5096480985060C25E
:1000760094C281750A00750B00C3E50A94E87403FF
:100086006480F8E50B648098500E7401250AF50A21
:100096007400350BF50B80E1D294D281750A007598
:1000A6000B00C3E50A94E874036480F8E50B6480EA
:1000B60098500E7401250AF50A7400350BF50B806D
:1000C600E174012508F50874003509F50901642075
:1000D6009104D294C281209204C294D281209304C6
:0800E600D294D281015980FE81
:00000001FF
