:100000000200560200000000000000020000000094
:1000100000000002000000000000000200000000DC
:1000200000000002000000000000000200000000CC
:1000300000000002000000000000000200000000BC
:0E0040000000000000000000000000020000B0
:08004E00E493F608A3D9F9229E
:10005600758180750800750900D3E508940A740057
:100066006480F8E509648098502CC2807D047E8106
:100076007F79DFFEDEFCDDFA00D2807D047E817FA3
:1000860079DFFEDEFCDDFA0074012508F508740050
:100096003509F50980C3750800750900D3E508948C
:1000A6000A74006480F8E509648098502E75800013
:1000B6007D047E817F79DFFEDEFCDDFA007580FE41
:1000C6007D047E817F79DFFEDEFCDDFA007401258A
:1000D60008F50874003509F50980C1750800750929
:1000E60000D3E508940A74006480F8E509648098F2
:1000F600502E7580007D047E817F79DFFEDEFCDD7B
:10010600FA0075801A7D047E817F79DFFEDEFCDDD4
:10011600FA0074012508F50874003509F50980C14F
:10012600750800750900D3E508940A74006480F820
:10013600E509648098502E7580007D047E817F7964
:10014600DFFEDEFCDDFA007580FF7D047E817F79AF
:10015600DFFEDEFCDDFA0074012508F508740035C3
:0C01660009F50980C17580FF015980FE79
:00000001FF
