:100000000200CB02005600000000000200000000C9
:1000100000000002006E000000000002000000006E
:1000200000000002000000000000000200000000CC
:1000300000000002000000000000000200000000BC
:0E0040000000000000000000000000020000B0
:08004E00E493F608A3D9F9229E
:10005600C0D0C0E0C0F0C082C083758055D083D0C8
:0800660082D0F0D0E0D0D032CE
:10006E00C000C006C007C0D0C0E0C0F0C082C083D0
:10007E00758033750800750900C3E508940A74008D
:10008E006480F8E5096480985022C2947EB47F4B58
:10009E00DFFEDEFCD2947EB47F4BDFFEDEFC74010D
:1000AE002508F50874003509F50980CDD083D08276
:0D00BE00D0F0D0E0D0D0D007D006D0003276
:1000CB00758180D2AFD2A8D288C2B8D2AAC28AD246
:1000DB00BA75808F7EB47F4BDFFEDEFC7580F07DC2
:1000EB00087E017FF5DFFEDEFCDDFA0080E380FE9B
:0000FB0005
:00000001FF
